{
  "abi": [
    {
      "type": "constructor",
      "inputs": [
        {
          "name": "_dalleNft",
          "type": "address",
          "internalType": "address"
        }
      ],
      "stateMutability": "nonpayable"
    },
    {
      "type": "function",
      "name": "batchGetMintInputs",
      "inputs": [
        {
          "name": "tokenIds",
          "type": "uint256[]",
          "internalType": "uint256[]"
        }
      ],
      "outputs": [
        {
          "name": "",
          "type": "tuple[]",
          "internalType": "struct BreedDalleNFT.MintInput[]",
          "components": [
            {
              "name": "owner",
              "type": "address",
              "internalType": "address"
            },
            {
              "name": "answers",
              "type": "uint8[10]",
              "internalType": "uint8[10]"
            },
            {
              "name": "parent1",
              "type": "uint256",
              "internalType": "uint256"
            },
            {
              "name": "parent2",
              "type": "uint256",
              "internalType": "uint256"
            }
          ]
        }
      ],
      "stateMutability": "view"
    },
    {
      "type": "function",
      "name": "batchGetTokenOwners",
      "inputs": [
        {
          "name": "tokenIds",
          "type": "uint256[]",
          "internalType": "uint256[]"
        }
      ],
      "outputs": [
        {
          "name": "",
          "type": "address[]",
          "internalType": "address[]"
        }
      ],
      "stateMutability": "view"
    },
    {
      "type": "function",
      "name": "batchGetTokenUris",
      "inputs": [
        {
          "name": "tokenIds",
          "type": "uint256[]",
          "internalType": "uint256[]"
        }
      ],
      "outputs": [
        {
          "name": "",
          "type": "string[]",
          "internalType": "string[]"
        }
      ],
      "stateMutability": "view"
    },
    {
      "type": "function",
      "name": "breedAndMint",
      "inputs": [
        {
          "name": "tokenId1",
          "type": "uint256",
          "internalType": "uint256"
        },
        {
          "name": "tokenId2",
          "type": "uint256",
          "internalType": "uint256"
        }
      ],
      "outputs": [
        {
          "name": "",
          "type": "uint256",
          "internalType": "uint256"
        }
      ],
      "stateMutability": "nonpayable"
    },
    {
      "type": "function",
      "name": "generatePrompt",
      "inputs": [
        {
          "name": "answers",
          "type": "uint8[10]",
          "internalType": "uint8[10]"
        }
      ],
      "outputs": [
        {
          "name": "",
          "type": "string",
          "internalType": "string"
        }
      ],
      "stateMutability": "view"
    },
    {
      "type": "function",
      "name": "getPrompt",
      "inputs": [
        {
          "name": "tokenId",
          "type": "uint256",
          "internalType": "uint256"
        }
      ],
      "outputs": [
        {
          "name": "",
          "type": "string",
          "internalType": "string"
        }
      ],
      "stateMutability": "view"
    },
    {
      "type": "function",
      "name": "getTokenIds",
      "inputs": [],
      "outputs": [
        {
          "name": "",
          "type": "uint256[]",
          "internalType": "uint256[]"
        }
      ],
      "stateMutability": "view"
    },
    {
      "type": "function",
      "name": "mint",
      "inputs": [
        {
          "name": "_answers",
          "type": "uint8[10]",
          "internalType": "uint8[10]"
        }
      ],
      "outputs": [
        {
          "name": "",
          "type": "uint256",
          "internalType": "uint256"
        }
      ],
      "stateMutability": "nonpayable"
    },
    {
      "type": "function",
      "name": "mintInputs",
      "inputs": [
        {
          "name": "dalleTokenId",
          "type": "uint256",
          "internalType": "uint256"
        }
      ],
      "outputs": [
        {
          "name": "owner",
          "type": "address",
          "internalType": "address"
        },
        {
          "name": "parent1",
          "type": "uint256",
          "internalType": "uint256"
        },
        {
          "name": "parent2",
          "type": "uint256",
          "internalType": "uint256"
        }
      ],
      "stateMutability": "view"
    },
    {
      "type": "function",
      "name": "mixAnswers",
      "inputs": [
        {
          "name": "_answers1",
          "type": "uint8[10]",
          "internalType": "uint8[10]"
        },
        {
          "name": "_answers2",
          "type": "uint8[10]",
          "internalType": "uint8[10]"
        }
      ],
      "outputs": [
        {
          "name": "mixedAnswers",
          "type": "uint8[10]",
          "internalType": "uint8[10]"
        }
      ],
      "stateMutability": "view"
    },
    {
      "type": "function",
      "name": "onERC721Received",
      "inputs": [
        {
          "name": "operator",
          "type": "address",
          "internalType": "address"
        },
        {
          "name": "from",
          "type": "address",
          "internalType": "address"
        },
        {
          "name": "tokenId",
          "type": "uint256",
          "internalType": "uint256"
        },
        {
          "name": "data",
          "type": "bytes",
          "internalType": "bytes"
        }
      ],
      "outputs": [
        {
          "name": "",
          "type": "bytes4",
          "internalType": "bytes4"
        }
      ],
      "stateMutability": "nonpayable"
    },
    {
      "type": "function",
      "name": "s_dalleNft",
      "inputs": [],
      "outputs": [
        {
          "name": "",
          "type": "address",
          "internalType": "contract IDalleNft"
        }
      ],
      "stateMutability": "view"
    },
    {
      "type": "function",
      "name": "s_styleModifiers",
      "inputs": [
        {
          "name": "",
          "type": "uint256",
          "internalType": "uint256"
        }
      ],
      "outputs": [
        {
          "name": "",
          "type": "string",
          "internalType": "string"
        }
      ],
      "stateMutability": "view"
    },
    {
      "type": "function",
      "name": "s_tokenIds",
      "inputs": [
        {
          "name": "",
          "type": "uint256",
          "internalType": "uint256"
        }
      ],
      "outputs": [
        {
          "name": "",
          "type": "uint256",
          "internalType": "uint256"
        }
      ],
      "stateMutability": "view"
    },
    {
      "type": "function",
      "name": "s_translations",
      "inputs": [
        {
          "name": "",
          "type": "uint256",
          "internalType": "uint256"
        },
        {
          "name": "",
          "type": "uint256",
          "internalType": "uint256"
        }
      ],
      "outputs": [
        {
          "name": "",
          "type": "string",
          "internalType": "string"
        }
      ],
      "stateMutability": "view"
    },
    {
      "type": "function",
      "name": "setDalleNft",
      "inputs": [
        {
          "name": "_dalleNft",
          "type": "address",
          "internalType": "address"
        }
      ],
      "outputs": [],
      "stateMutability": "nonpayable"
    },
    {
      "type": "function",
      "name": "withdraw",
      "inputs": [
        {
          "name": "tokenId",
          "type": "uint256",
          "internalType": "uint256"
        }
      ],
      "outputs": [],
      "stateMutability": "nonpayable"
    },
    {
      "type": "event",
      "name": "Breed",
      "inputs": [
        {
          "name": "owner",
          "type": "address",
          "indexed": true,
          "internalType": "address"
        },
        {
          "name": "tokenId",
          "type": "uint256",
          "indexed": true,
          "internalType": "uint256"
        },
        {
          "name": "tokenId1",
          "type": "uint256",
          "indexed": true,
          "internalType": "uint256"
        },
        {
          "name": "tokenId2",
          "type": "uint256",
          "indexed": false,
          "internalType": "uint256"
        }
      ],
      "anonymous": false
    },
    {
      "type": "error",
      "name": "NotActualOwner",
      "inputs": []
    }
  ],
  "bytecode": {
    "object": "0x608060405234611ced576135636020813803918261001c81611d12565b938492833981010312611ced57516001600160a01b03811690819003611ced57610044611cf2565b61004c611cf2565b6100566040611d12565b600c81526b667269656e646c7920646f6760a01b6020820152815261007b6040611d12565b600b81526a18dd5c9a5bdd5cc818d85d60aa1b602082015260208201526100a26040611d12565b600d81526c18dbdb1bdc999d5b08189a5c99609a1b602082015260408201526100cb6060611d12565b602381527f6d7973746572696f7573205b73706563696669632065786f74696320616e696d602082015262616c5d60e81b604082015260608201526101106040611d12565b600d81526c199b1d59999e481c9858989a5d609a1b602082015260808201526101396040611d12565b600f81526e0e6d0d2dadacae4d2dcce40ccd2e6d608b1b602082015260a08201526101646040611d12565b601081526f30b237b930b13632903430b6b9ba32b960811b602082015260c08201526101906040611d12565b600b81526a7769736520747572746c6560a81b602082015260e08201526101b76040611d12565b600a8152690c6d8caeccae440ccdef60b31b60208201526101008201526101de6040611d12565b600f81526e383630bcb33ab6103832b733bab4b760891b6020820152610120820152815261020a611cf2565b6102146040611d12565b600c81526b5b636f6c6f725d206579657360a01b602082015281526102396040611d12565b601d81527f5b7061747465726e5d206675722f66656174686572207061747465726e000000602082015260208201526102726060611d12565b602281527f616e20656e64656172696e67205b73706563696669632065787072657373696f6020820152616e5d60f01b604082015260408201526102b66040611d12565b601681527f5b6d61676963616c20656c656d656e745d206175726100000000000000000000602082015260608201526102ef6040611d12565b601081526f5b73686170655d206d61726b696e677360801b6020820152608082015261031b6040611d12565b602081527f5b636f6c6f722d6368616e67696e675d207363616c65732f6665617468657273602082015260a08201526103546040611d12565b601981527f61205b636f6c6f725d20676c6f77696e67206f75746c696e6500000000000000602082015260c082015261038d6040611d12565b601b81527f5b6d6574616c5d20726f626f746963205b626f647920706172745d0000000000602082015260e08201526103c66040611d12565b601681527f64656c6963617465205b636f6c6f725d2077696e67730000000000000000000060208201526101008201526104006040611d12565b601681527f612076696272616e74207261696e626f77207461696c000000000000000000006020820152610120820152602082015261043d611cf2565b6104476040611d12565b602081527f77656172696e672061205b7374796c655d20636f6c6c61722f626f77207469656020820152815261047d6060611d12565b602381527f61646f726e656420776974682061205b747970655d206861742f68656164706960208201526265636560e81b604082015260208201526104c26040611d12565b602081527f73706f7274696e67205b7374796c655d20676c61737365732f6d6f6e6f636c65602082015260408201526104fb6060611d12565b602e81527f63726f776e65642077697468205b74797065206f6620666c6f776572732f6e6160208201526d7475726520656c656d656e74735d60901b6040820152606082015261054b6040611d12565b601e81527f7772617070656420696e2061205b7061747465726e5d2062616e64616e610000602082015260808201526105846060611d12565b602181527f6465636f72617465642077697468205b67656d73746f6e655d206a6577656c726020820152607960f81b604082015260a08201526105c76040611d12565b602081527f646f6e6e696e672061205b636f6c6f725d2073757065726865726f2063617065602082015260c08201526106006060611d12565b602381527f7769656c64696e672061205b6d6174657269616c5d2077697a61726427732077602082015262185b9960ea1b604082015260e08201526106456060611d12565b602381527f77656172696e6720696e7472696361746520737465616d70756e6b20676f67676020820152626c657360e81b604082015261010082015261068b6040611d12565b602081527f6361727279696e6720612074696e79205b636f6c6f725d206261636b7061636b602082015261012082015260408201526106c8611cf2565b6106d26040611d12565b601f81527f696e2061207761726d2c20696e766974696e67205b726f6f6d20747970655d00602082015281526107086060611d12565b602881527f737572726f756e646564206279205b7370656369666963206e617475726520656020820152676c656d656e74735d60c01b604082015260208201526107526060611d12565b603081527f696e206120647265616d6c696b65206c616e6473636170652077697468205b6660208201526f616e7461737920656c656d656e74735d60801b604082015260408201526107a46060611d12565b602581527f616761696e73742061206261636b64726f70206f66205b6369747920656c656d602082015264656e74735d60d81b604082015260608201526107eb6060611d12565b602381527f616d6964737420612076696272616e74205b756e6465727761746572207363656020820152626e655d60e81b604082015260808201526108306060611d12565b602481527f62656e656174682061205b636f6e7374656c6c6174696f6e5d2066696c6c656460208201526320736b7960e01b604082015260a08201526108766060611d12565b602981527f696e2061207768696d736963616c20776f726c64206d616465206f66205b63616020820152686e647920747970655d60b81b604082015260c08201526108c16060611d12565b602681527f61626f6172642061205b616476616e63656420746563685d20737061636520736020820152653a30ba34b7b760d11b604082015260e08201526109096060611d12565b602681527f6578706c6f72696e67205b616e6369656e7420636976696c697a6174696f6e5d602082015265207275696e7360d01b60408201526101008201526109526040611d12565b601d81527f6e65617220616e20616374697665205b747970655d20766f6c63616e6f0000006020820152610120820152606082015261098f611cf2565b6109996040611d12565b601481527f6a6f7966756c20616e6420656e65726765746963000000000000000000000000602082015281526109cf6040611d12565b601681527f6d616a657374696320616e64206469676e69666965640000000000000000000060208201526020820152610a086040611d12565b601981527f656e69676d6174696320616e64206361707469766174696e670000000000000060208201526040820152610a416040611d12565b601381527f736572656e6520616e6420706561636566756c0000000000000000000000000060208201526060820152610a7a6040611d12565b601581527f696e71756973697469766520616e6420616c657274000000000000000000000060208201526080820152610ab36040611d12565b601581527f636f75726167656f757320616e6420646172696e670000000000000000000000602082015260a0820152610aec6040611d12565b601381527f74696d696420616e6420656e64656172696e6700000000000000000000000000602082015260c0820152610b256040611d12565b6011815270706c617966756c6c792063756e6e696e6760781b602082015260e0820152610b526040611d12565b601681527f7472616e7175696c20616e64207361676163696f7573000000000000000000006020820152610100820152610b8c6040611d12565b601481527f64796e616d696320616e64206174686c6574696300000000000000000000000060208201526101208201526080820152610bc9611cf2565b610bd36040611d12565b601781527f62617468656420696e20736f6674206461796c6967687400000000000000000060208201528152610c096040611d12565b601e81527f696c6c756d696e61746564206279206120676f6c64656e2073756e736574000060208201526020820152610c426040611d12565b601b81527f756e6465722074686520676c6f77206f66206d6f6f6e6c69676874000000000060208201526040820152610c7b6040611d12565b601b81527f696e207468652067656e746c65206c69676874206f66206461776e000000000060208201526060820152610cb46040611d12565b601981527f616d6964205b77656174686572207068656e6f6d656e6f6e5d0000000000000060208201526080820152610ced6060611d12565b602281527f737572726f756e646564206279206120737065637472756d206f6620636f6c6f602082015261727360f01b604082015260a0820152610d316040611d12565b601f81527f62656e656174682064616e63696e67206e6f72746865726e206c696768747300602082015260c0820152610d6a6060611d12565b602581527f647572696e672061206d7973746572696f7573205b63656c65737469616c206560208201526476656e745d60d81b604082015260e0820152610db16040611d12565b601a81527f7368726f7564656420696e2061206d7973746963616c20666f670000000000006020820152610100820152610deb6060611d12565b602681527f756e646572206120736b792066696c6c656420776974682073686f6f74696e6760208201526520737461727360d01b604082015261012082015260a0820152610e37611cf2565b610e416040611d12565b601b81527f647572696e672074686520686569676874206f6620737072696e67000000000060208201528152610e776040611d12565b601781527f696e20746865207761726d7468206f662073756d6d657200000000000000000060208201526020820152610eb06040611d12565b601981527f737572726f756e6465642062792066616c6c20636f6c6f72730000000000000060208201526040820152610ee96040611d12565b601681527f696e20612077696e74657220776f6e6465726c616e640000000000000000000060208201526060820152610f226040611d12565b601f81527f616d6964737420626c6f6f6d696e672063686572727920626c6f73736f6d730060208201526080820152610f5b6040611d12565b601a81527f647572696e67206865617679206d6f6e736f6f6e207261696e73000000000000602082015260a0820152610f946040611d12565b601d81527f77656174686572696e672061206465736572742073616e6473746f726d000000602082015260c0820152610fcd6040611d12565b601a81527f696e2061206c7573682074726f706963616c2073657474696e67000000000000602082015260e08201526110066040611d12565b601b81527f6f6e207468652066726f7a656e2061726374696320706c61696e73000000000060208201526101008201526110406040611d12565b601d81527f696e206120737465616d79206a756e676c652061746d6f737068657265000000602082015261012082015260c082015261107d611cf2565b6110876040611d12565b602081527f776974682061206d7973746572696f7573205b636f6c6f725d20706f74696f6e602082015281526110bd6060611d12565b602481527f686f6c64696e6720616e20616e6369656e74205b6d6174657269616c5d2073636020820152631c9bdb1b60e21b604082015260208201526111036060611d12565b602181527f67617a696e6720696e746f2061205b73697a655d206372797374616c2062616c6020820152601b60fa1b604082015260408201526111466040611d12565b601f81527f726964696e672061205b7061747465726e5d206d6167696320636172706574006020820152606082015261117f6060611d12565b602781527f7265666c656374656420696e20616e206f726e61746520656e6368616e7465646020820152661036b4b93937b960c91b604082015260808201526111c86040611d12565b601d81527f77656172696e672061205b6d6574616c5d2074696d652d7475726e6572000000602082015260a08201526112016040611d12565b601d81527f706c616e74696e67205b747970655d206d61676963616c207365656473000000602082015260c082015261123a6060611d12565b602281527f68696464656e20756e64657220616e20696e7669736962696c69747920636c6f602082015261616b60f01b604082015260e082015261127e6040611d12565b601d81527f737072696e6b6c696e67205b636f6c6f725d206661697279206475737400000060208201526101008201526112b86040611d12565b601a81527f6775617264696e672061207261726520647261676f6e20656767000000000000602082015261012082015260e08201526112f5611cf2565b6112ff6040611d12565b601b81527f696e20636861726d696e6720706978656c20617274207374796c650000000000602082015281526113356040611d12565b601e81527f7769746820647265616d79207761746572636f6c6f72206566666563747300006020820152602082015261136e6040611d12565b601881527f696e20626f6c6420636f6d696320626f6f6b207374796c650000000000000000602082015260408201526113a76040611d12565b602081527f676c6f77696e6720776974682076696272616e74206e656f6e20636f6c6f7273602082015260608201526113e06040611d12565b601c81527f696e206120736c65656b206d696e696d616c6973742064657369676e00000000602082015260808201526114196040611d12565b601f81527f617320616e20696d7072657373696f6e697374206d6173746572706965636500602082015260a08201526114526040611d12565b601881527f696e207374756e6e696e672033442072656e646572696e670000000000000000602082015260c082015261148b6040611d12565b601e81527f776974682061206e6f7374616c67696320383073206165737468657469630000602082015260e08201526114c46040611d12565b601681527f696e20706f70756c617220616e696d65207374796c650000000000000000000060208201526101008201526114fe6060611d12565b602181527f636170747572656420696e2070686f746f7265616c69737469632064657461696020820152601b60fa1b6040820152610120820152610100820152611546611cf2565b6115506040611d12565b601f81527f706c6179696e67205b696e737472756d656e745d20736b696c6c66756c6c7900602082015281526115866040611d12565b601c81527f737472696b696e672061207065726665637420796f676120706f736500000000602082015260208201526115bf6040611d12565b601a81527f707265706172696e67206120676f75726d6574205b646973685d000000000000602082015260408201526115f86040611d12565b601981527f656e67726f7373656420696e205b67656e72655d20626f6f6b00000000000000602082015260608201526116316040611d12565b601b81527f6372656174696e672061205b7374796c655d207061696e74696e6700000000006020820152608082015261166a6040611d12565b601b81527f74656e64696e6720746f2061205b706c616e745d2067617264656e0000000000602082015260a08201526116a36060611d12565b602b81527f6f6273657276696e67205b63656c65737469616c20626f64795d20776974682060208201526a612074656c6573636f706560a81b604082015260c08201526116f06040611d12565b601d81527f726964696e672061206d617373697665205b636f6c6f725d2077617665000000602082015260e08201526117296040611d12565b601c81527f646565706c7920666f637573656420696e206d656469746174696f6e0000000060208201526101008201526117636060611d12565b602281527f706572666f726d696e672061205b64616e6365207374796c655d20726f7574696020820152616e6560f01b6040820152610120820152610120820152600080915b600a8310611bb057604051849061018081016001600160401b03811182821017611b9a576040526117da6040611d12565b601481527f7768696d736963616c207761746572636f6c6f72000000000000000000000000602082015281526118106040611d12565b601a81527f7265616c6973746963206469676974616c207061696e74696e67000000000000602082015260208201526118496040611d12565b601081526f39ba3cb634bd32b21031b0b93a37b7b760811b602082015260408201526118756040611d12565b601481527f76696e7461676520696c6c757374726174696f6e000000000000000000000000602082015260608201526118ae6040611d12565b60098152681c1a5e195b08185c9d60ba1b602082015260808201526118d36040611d12565b601681527f61627374726163742065787072657373696f6e69736d00000000000000000000602082015260a082015261190c6040611d12565b60078152661c1bdc08185c9d60ca1b602082015260c082015261192f6040611d12565b601781527f6d696e696d616c697374206c696e652064726177696e67000000000000000000602082015260e08201526119686040611d12565b601581527f33442072656e6465726564207363756c7074757265000000000000000000000060208201526101008201526119a26040611d12565b601a81527f696d7072657373696f6e6973742062727573687374726f6b657300000000000060208201526101208201526119dc6040611d12565b601481527f616e696d652d696e737069726564206d616e67610000000000000000000000006020820152610140820152611a166040611d12565b601381527f677261666669746920737472656574206172740000000000000000000000000060208201526101608201526064906000905b600c8210611a7657607080546001600160a01b031916851790556040516117da9081611d898239f35b80518051906001600160401b038211611b9a57611a938554611d37565b601f8111611b5d575b50602090601f8311600114611af05792611ad683600195946020948796600092611ae5575b50508160011b916000199060031b1c19161790565b86555b01930191019091611a4d565b015190508a80611ac1565b90601f1983169186600052816000209260005b818110611b455750936020936001969387969383889510611b2c575b505050811b018655611ad9565b015160001960f88460031b161c19169055898080611b1f565b92936020600181928786015181550195019301611b03565b611b8a90866000526020600020601f850160051c81019160208610611b90575b601f0160051c0190611d71565b86611a9c565b9091508190611b7d565b634e487b7160e01b600052604160045260246000fd5b8051826000915b600a8310611bd557505050600a6020600192019201920191906117a9565b80518051906001600160401b038211611b9a57611bf28454611d37565b601f8111611cbb575b50602090601f8311600114611c4e5792611c3483600195946020948796600092611c435750508160011b916000199060031b1c19161790565b85555b01920192019190611bb7565b015190503880611ac1565b90601f1983169185600052816000209260005b818110611ca35750936020936001969387969383889510611c8a575b505050811b018555611c37565b015160001960f88460031b161c19169055388080611c7d565b92936020600181928786015181550195019301611c61565b611ce790856000526020600020601f850160051c81019160208610611b9057601f0160051c0190611d71565b38611bfb565b600080fd5b6040519061014082016001600160401b03811183821017611b9a57604052565b6040519190601f01601f191682016001600160401b03811183821017611b9a57604052565b90600182811c92168015611d67575b6020831014611d5157565b634e487b7160e01b600052602260045260246000fd5b91607f1691611d46565b818110611d7c575050565b60008155600101611d7156fe608080604052600436101561001357600080fd5b600090813560e01c908163150b7a0214610f46575080632e1a7d4d14610de75780634e3b128114610d9d5780635fe26b4d14610b5257806367f718a914610a9c5780637cdb78a414610a45578063890ad12a146109aa5780638f06e912146107d95780639a60c35f146107065780639f1790421461051c578063b8dfdc9014610494578063bd95c24b1461046d578063cf73cdd214610393578063debee4f614610355578063e4676cac14610207578063f1fbc6ba146101de5763f426a772146100dc57600080fd5b346101db576100ea36610fe7565b90600a8110156101d757600a8210156101d757600a020190806101c357604051918181549161011883610ffd565b80865292600181169081156101995750600114610158575b6101548561014081870382611069565b6040519182916020835260208301906110ae565b0390f35b815260208120939250905b80821061017f5750909150810160200161014082610154610130565b919260018160209254838588010152019101909291610163565b8695506101549693506020925061014094915060ff191682840152151560051b8201019293610130565b634e487b7160e01b81526004819052602490fd5b8280fd5b80fd5b50346101db57806003193601126101db576070546040516001600160a01b039091168152602090f35b50346101db57610216366110eb565b90815161023b610225826110d3565b916102336040519384611069565b8083526110d3565b602082019290601f19013684376070546001600160a01b031693815b81518110156103065761026a8183611234565b5190604051916331a9108f60e11b835260048301526020826024818a5afa80156102fb5784906102b3575b600192506102a38287611234565b90838060a01b0316905201610257565b50906020813d82116102f3575b816102cd60209383611069565b810103126102ef57516001600160a01b03811681036102ef5790600191610295565b8380fd5b3d91506102c0565b6040513d86823e3d90fd5b5050925090604051928392602084019060208552518091526040840192915b818110610333575050500390f35b82516001600160a01b0316845285945060209384019390920191600101610325565b50346101db5760203660031901126101db576001600160a01b03610377610fb6565b166bffffffffffffffffffffffff60a01b607054161760705580f35b50346101db5760203660031901126101db5761014060406101549260043581526071602052206040516103c581611037565b60018060a01b038254168152606060036040519360ff60018201548181168752818160081c166020880152818160101c166040880152818160181c1685880152818160201c166080880152818160281c1660a0880152818160301c1660c0880152818160381c1660e0880152818160401c1661010088015260481c1661012086015261045361014086611069565b846020850152600281015460408501520154910152611378565b50346101db576101403660031901126101db5761015461014061048f3661116a565b611378565b50346101db576102803660031901126101db576104b03661116a565b36610163121561051857604051610140916104cb8383611069565b819336610284116101db57610144945b61028486106104fe57846104ef858561126f565b6104fc60405180926111b9565bf35b853560ff811681036101d7578152602095860195016104db565b5080fd5b50346101db5761052b366110eb565b8051610536816110d3565b906105446040519283611069565b808252610553601f19916110d3565b01835b8181106106c5575050825b825181101561064c578061057760019285611234565b51855260716020526040852060036040519161059283611037565b848060a01b03815416835260405160ff868301548181168352818160081c166020840152818160101c166040840152818160181c166060840152818160201c166080840152818160281c1660a0840152818160301c1660c0840152818160381c1660e0840152818160401c1661010084015260481c1661012082015261061a61014082611069565b6020840152600281015460408401520154606082015261063a8285611234565b526106458184611234565b5001610561565b8184604051918291602083016020845282518091526020604085019301915b818110610679575050500390f35b9193509160206101a060019260608751858060a01b0381511683526106a485820151868501906111b9565b6040810151610160840152015161018082015201940191019184939261066b565b6020906040516106d481611037565b8681526040516101406106e78183611069565b3682378382015286604082015286606082015282828601015201610556565b50346101db576101403660031901126101db576107223661116a565b9061072c8261170f565b80825260716020526040822080546001600160a01b03191633178155919290918391825b600a81106107ab5750506003816020956001859401558260028201550155610777826111e4565b816040518281527fddf1e8fec06a50aa72b8a39a06787808c53eca73b2bd1cc995681cf7b8014650853392a4604051908152f35b909460206107d06001928460ff8a5116919060ff809160031b9316831b921b19161790565b96019101610750565b50346101db576107e8366110eb565b8051916107f4836110d3565b926108026040519485611069565b808452610811601f19916110d3565b01815b8181106109995750506070546001600160a01b0316815b83518110156109325761083e8185611234565b51906040519163c87b56dd60e01b835260048301528382602481865afa80156102fb578490610888575b600192506108768288611234565b526108818187611234565b500161082b565b50903d8085833e6108998183611069565b81019060208183031261092e5780519067ffffffffffffffff8211610916570181601f8201121561092e5780519067ffffffffffffffff821161091a57604051926108ee601f8401601f191660200185611069565b82845260208383010111610916578291610911916020806001979601910161108b565b610868565b8580fd5b634e487b7160e01b86526041600452602486fd5b8480fd5b84836040519182916020830160208452825180915260408401602060408360051b870101940192905b82821061096a57505050500390f35b919360019193955060206109898192603f198a820301865288516110ae565b960192019201859493919261095b565b806060602080938801015201610814565b50346101db5760203660031901126101db57600435600c811015610518576064019060405191818154916109dd83610ffd565b80865292600181169081156101995750600114610a04576101548561014081870382611069565b815260208120939250905b808210610a2b5750909150810160200161014082610154610130565b919260018160209254838588010152019101909291610a0f565b50346101db5760203660031901126101db57600435906072548210156101db57607254821015610a88576020916072825282822001549060031b1c604051908152f35b634e487b7160e01b81526032600452602490fd5b50346101db57806003193601126101db5760405180602060725491828152018091607285527fdffbd64cc7c1a7eb27984335d9416d51137a03d3fabec7141025c62663253fe190855b818110610b3c5750505082610afb910383611069565b604051928392602084019060208552518091526040840192915b818110610b23575050500390f35b8251845285945060209384019390920191600101610b15565b8254845260209093019260019283019201610ae5565b50346101db57610b6136610fe7565b908083526071602052610ce360408420604051610b7d81611037565b60018060a01b038254168152606060036040519360ff60018201548181168752818160081c166020880152818160101c166040880152818160181c1685880152818160201c166080880152818160281c1660a0880152818160301c1660c0880152818160381c1660e0880152818160401c1661010088015260481c16610120860152610c0b61014086611069565b6020840194855260028101546040850152015491015283855260716020526040852090604051610c3a81611037565b60018060a01b038354168152606060036040519460ff60018201548181168852818160081c166020890152818160101c166040890152818160181c1685890152818160201c166080890152818160281c1660a0890152818160301c1660c0890152818160381c1660e0890152818160401c1661010089015260481c16610120870152610cc861014087611069565b8560208501526002810154604085015201549101525161126f565b91610ced8361170f565b9283855260716020526040852090855b600a8110610d6f575050600181019490945583546001600160a01b031916331784556002840182905560039093018390556020928290610d3c826111e4565b6040519081527fddf1e8fec06a50aa72b8a39a06787808c53eca73b2bd1cc995681cf7b8014650853392a4604051908152f35b90956020610d946001928460ff8b5116919060ff809160031b9316831b921b19161790565b97019101610cfd565b50346101db5760203660031901126101db576040606091600435815260716020522060018060a01b0381541690600360028201549101549060405192835260208301526040820152f35b50346101db5760203660031901126101db5760043580825260716020526040822090600360405192610e1884611037565b60018060a01b03815416845260405160ff60018301548181168352818160081c166020840152818160101c166040840152818160181c166060840152818160201c166080840152818160281c1660a0840152818160301c1660c0840152818160381c1660e0840152818160401c1661010084015260481c16610120820152610ea261014082611069565b6020850152600281015460408501520154606083015281516001600160a01b03163303610f375760705491516001600160a01b03928316928492911690833b156101d75760648392836040519687948593632142170760e11b8552306004860152602485015260448401525af18015610f2a57610f1c5780f35b610f2591611069565b388180f35b50604051903d90823e3d90fd5b630b46a70d60e31b8352600483fd5b90503461051857608036600319011261051857610f61610fb6565b50610f6a610fd1565b5060643567ffffffffffffffff81116101d757366023820112156101d757806004013567ffffffffffffffff81116102ef573691016024011161051857630a85bd0160e11b8152602090f35b600435906001600160a01b0382168203610fcc57565b600080fd5b602435906001600160a01b0382168203610fcc57565b6040906003190112610fcc576004359060243590565b90600182811c9216801561102d575b602083101461101757565b634e487b7160e01b600052602260045260246000fd5b91607f169161100c565b6080810190811067ffffffffffffffff82111761105357604052565b634e487b7160e01b600052604160045260246000fd5b90601f8019910116810190811067ffffffffffffffff82111761105357604052565b60005b83811061109e5750506000910152565b818101518382015260200161108e565b906020916110c78151809281855285808601910161108b565b601f01601f1916010190565b67ffffffffffffffff81116110535760051b60200190565b6020600319820112610fcc576004359067ffffffffffffffff8211610fcc5780602383011215610fcc578160040135611123816110d3565b926111316040519485611069565b8184526024602085019260051b820101928311610fcc57602401905b82821061115a5750505090565b813581526020918201910161114d565b8060231215610fcc576040519061118361014083611069565b819061014411610fcc576004905b610144821061119f57505090565b813560ff81168103610fcc57815260209182019101611191565b906000905b600a82106111cb57505050565b60208060019260ff8651168152019301910190916111be565b6072546801000000000000000081101561105357600181016072556000607254821015610a8857607290527fdffbd64cc7c1a7eb27984335d9416d51137a03d3fabec7141025c62663253fe10155565b80518210156112485760209160051b010190565b634e487b7160e01b600052603260045260246000fd5b90600a8110156112485760051b0190565b9190610140604051906112828183611069565b36823780936000926001421615935b600a81106112a0575050505050565b8060ff6112af6001938661125e565b511660ff6112bd838661125e565b51161080611303575b156112f05760ff6112d7828661125e565b51165b60ff6112e6838861125e565b9116905201611291565b60ff6112fc828561125e565b51166112da565b50856112c6565b6000929181549161131a83610ffd565b9260018116908115611365575060011461133357505050565b909192935060005260206000206000905b8382106113515750500190565b600181602092548486015201910190611344565b60ff191683525050811515909102019150565b9060005b60ff8116600a8110156113b55760ff9181836113aa600a826113a06001978b61125e565b511606928861125e565b91169052011661137c565b5050600090815b60ff8316600a81101561141757600a820291808304600a1490151715611401576113e860ff918661125e565b5116810180911161140157600160ff91930116916113bc565b634e487b7160e01b600052601160045260246000fd5b5060ff91939250600c900616600c8110156112485760ff82511691600a8310156112485760009060ff602082015116600a8110156116fb57600a0160ff604083015116600a8110156116e75760140160ff606084015116600a8110156116d357601e0160ff60a085015116600a8110156116bf5760320160ff60c086015116600a8110156116ab57603c019160ff608087015116600a811015611697576028019360ff61012088015116600a81101561168357605a019560ff60e089015116600a81101561166f5761010060ff9160460199015116600a81101561166f5760500198506040519a8b9a60208c016a023b2b732b930ba329030960ad1b9052602b8c0190606401906115279161130a565b6e0103837b93a3930b4ba1037b310309608d1b8152600f016115489161130a565b650103bb4ba34160d51b81526006016115609161130a565b61016160f51b81526002016115749161130a565b72017102a34329039b1b2b7329034b99039b2ba1606d1b81526013016115999161130a565b600160fd1b81526001016115ac9161130a565b600160fd1b81526001016115bf9161130a565b74017102a34329030b734b6b0b61030b83832b0b9399605d1b81526015016115e69161130a565b660103bb434b632960cd1b81526007016115ff9161130a565b61017160f51b81526002016116139161130a565b7f2063616e206265207365656e206e65617262792e20546865206f766572616c6c8152602081016d01030b2b9ba3432ba34b19034b9960951b9052602e0161165a9161130a565b03601f198101825261166c9082611069565b90565b634e487b7160e01b8a52603260045260248afd5b634e487b7160e01b89526032600452602489fd5b634e487b7160e01b88526032600452602488fd5b634e487b7160e01b87526032600452602487fd5b634e487b7160e01b86526032600452602486fd5b634e487b7160e01b85526032600452602485fd5b634e487b7160e01b84526032600452602484fd5b634e487b7160e01b83526032600452602483fd5b602061175361171f600093611378565b60705460405163271aa34360e01b8152600481018590529485936001600160a01b03909216928492839160248301906110ae565b03925af190811561179857600091611769575090565b90506020813d602011611790575b8161178460209383611069565b81010312610fcc575190565b3d9150611777565b6040513d6000823e3d90fdfea26469706673582212202395d9d88b481cab311d2fdb4527e0692853b05bff15616a9bf73f3685c86c2f64736f6c634300081a0033",
    "linkReferences": {}
  },
  "methodIdentifiers": {
    "batchGetMintInputs(uint256[])": "9f179042",
    "batchGetTokenOwners(uint256[])": "e4676cac",
    "batchGetTokenUris(uint256[])": "8f06e912",
    "breedAndMint(uint256,uint256)": "5fe26b4d",
    "generatePrompt(uint8[10])": "bd95c24b",
    "getPrompt(uint256)": "cf73cdd2",
    "getTokenIds()": "67f718a9",
    "mint(uint8[10])": "9a60c35f",
    "mintInputs(uint256)": "4e3b1281",
    "mixAnswers(uint8[10],uint8[10])": "b8dfdc90",
    "onERC721Received(address,address,uint256,bytes)": "150b7a02",
    "s_dalleNft()": "f1fbc6ba",
    "s_styleModifiers(uint256)": "890ad12a",
    "s_tokenIds(uint256)": "7cdb78a4",
    "s_translations(uint256,uint256)": "f426a772",
    "setDalleNft(address)": "debee4f6",
    "withdraw(uint256)": "2e1a7d4d"
  },
  "id": 24
}